{
  "_format": "hh-sol-artifact-1",
  "contractName": "ecoBlock",
  "sourceName": "contracts/ecoBlock.sol",
  "abi": [
    {
      "inputs": [],
      "stateMutability": "nonpayable",
      "type": "constructor"
    },
    {
      "inputs": [
        {
          "internalType": "address",
          "name": "sender",
          "type": "address"
        },
        {
          "internalType": "uint256",
          "name": "tokenId",
          "type": "uint256"
        },
        {
          "internalType": "address",
          "name": "owner",
          "type": "address"
        }
      ],
      "name": "ERC721IncorrectOwner",
      "type": "error"
    },
    {
      "inputs": [
        {
          "internalType": "address",
          "name": "operator",
          "type": "address"
        },
        {
          "internalType": "uint256",
          "name": "tokenId",
          "type": "uint256"
        }
      ],
      "name": "ERC721InsufficientApproval",
      "type": "error"
    },
    {
      "inputs": [
        {
          "internalType": "address",
          "name": "approver",
          "type": "address"
        }
      ],
      "name": "ERC721InvalidApprover",
      "type": "error"
    },
    {
      "inputs": [
        {
          "internalType": "address",
          "name": "operator",
          "type": "address"
        }
      ],
      "name": "ERC721InvalidOperator",
      "type": "error"
    },
    {
      "inputs": [
        {
          "internalType": "address",
          "name": "owner",
          "type": "address"
        }
      ],
      "name": "ERC721InvalidOwner",
      "type": "error"
    },
    {
      "inputs": [
        {
          "internalType": "address",
          "name": "receiver",
          "type": "address"
        }
      ],
      "name": "ERC721InvalidReceiver",
      "type": "error"
    },
    {
      "inputs": [
        {
          "internalType": "address",
          "name": "sender",
          "type": "address"
        }
      ],
      "name": "ERC721InvalidSender",
      "type": "error"
    },
    {
      "inputs": [
        {
          "internalType": "uint256",
          "name": "tokenId",
          "type": "uint256"
        }
      ],
      "name": "ERC721NonexistentToken",
      "type": "error"
    },
    {
      "anonymous": false,
      "inputs": [
        {
          "indexed": true,
          "internalType": "address",
          "name": "owner",
          "type": "address"
        },
        {
          "indexed": true,
          "internalType": "address",
          "name": "approved",
          "type": "address"
        },
        {
          "indexed": true,
          "internalType": "uint256",
          "name": "tokenId",
          "type": "uint256"
        }
      ],
      "name": "Approval",
      "type": "event"
    },
    {
      "anonymous": false,
      "inputs": [
        {
          "indexed": true,
          "internalType": "address",
          "name": "owner",
          "type": "address"
        },
        {
          "indexed": true,
          "internalType": "address",
          "name": "operator",
          "type": "address"
        },
        {
          "indexed": false,
          "internalType": "bool",
          "name": "approved",
          "type": "bool"
        }
      ],
      "name": "ApprovalForAll",
      "type": "event"
    },
    {
      "anonymous": false,
      "inputs": [
        {
          "indexed": false,
          "internalType": "uint256",
          "name": "_fromTokenId",
          "type": "uint256"
        },
        {
          "indexed": false,
          "internalType": "uint256",
          "name": "_toTokenId",
          "type": "uint256"
        }
      ],
      "name": "BatchMetadataUpdate",
      "type": "event"
    },
    {
      "anonymous": false,
      "inputs": [
        {
          "indexed": false,
          "internalType": "uint256",
          "name": "_tokenId",
          "type": "uint256"
        }
      ],
      "name": "MetadataUpdate",
      "type": "event"
    },
    {
      "anonymous": false,
      "inputs": [
        {
          "indexed": true,
          "internalType": "address",
          "name": "from",
          "type": "address"
        },
        {
          "indexed": true,
          "internalType": "address",
          "name": "to",
          "type": "address"
        },
        {
          "indexed": true,
          "internalType": "uint256",
          "name": "tokenId",
          "type": "uint256"
        }
      ],
      "name": "Transfer",
      "type": "event"
    },
    {
      "anonymous": false,
      "inputs": [
        {
          "indexed": true,
          "internalType": "uint256",
          "name": "tokenId",
          "type": "uint256"
        },
        {
          "indexed": false,
          "internalType": "address",
          "name": "seller",
          "type": "address"
        },
        {
          "indexed": false,
          "internalType": "address",
          "name": "owner",
          "type": "address"
        },
        {
          "indexed": false,
          "internalType": "uint256",
          "name": "price",
          "type": "uint256"
        },
        {
          "indexed": false,
          "internalType": "bool",
          "name": "sold",
          "type": "bool"
        }
      ],
      "name": "idMarketItemCreated",
      "type": "event"
    },
    {
      "inputs": [
        {
          "internalType": "address",
          "name": "to",
          "type": "address"
        },
        {
          "internalType": "uint256",
          "name": "tokenId",
          "type": "uint256"
        }
      ],
      "name": "approve",
      "outputs": [],
      "stateMutability": "nonpayable",
      "type": "function"
    },
    {
      "inputs": [
        {
          "internalType": "address",
          "name": "owner",
          "type": "address"
        }
      ],
      "name": "balanceOf",
      "outputs": [
        {
          "internalType": "uint256",
          "name": "",
          "type": "uint256"
        }
      ],
      "stateMutability": "view",
      "type": "function"
    },
    {
      "inputs": [
        {
          "internalType": "uint256",
          "name": "tokenId",
          "type": "uint256"
        }
      ],
      "name": "createMarketSale",
      "outputs": [],
      "stateMutability": "payable",
      "type": "function"
    },
    {
      "inputs": [
        {
          "internalType": "string",
          "name": "tokenURI",
          "type": "string"
        },
        {
          "internalType": "uint256",
          "name": "price",
          "type": "uint256"
        }
      ],
      "name": "createToken",
      "outputs": [
        {
          "internalType": "uint256",
          "name": "",
          "type": "uint256"
        }
      ],
      "stateMutability": "payable",
      "type": "function"
    },
    {
      "inputs": [],
      "name": "fetchItemsListed",
      "outputs": [
        {
          "components": [
            {
              "internalType": "uint256",
              "name": "tokenId",
              "type": "uint256"
            },
            {
              "internalType": "address payable",
              "name": "seller",
              "type": "address"
            },
            {
              "internalType": "address payable",
              "name": "owner",
              "type": "address"
            },
            {
              "internalType": "uint256",
              "name": "price",
              "type": "uint256"
            },
            {
              "internalType": "bool",
              "name": "sold",
              "type": "bool"
            }
          ],
          "internalType": "struct ecoBlock.MarketItem[]",
          "name": "",
          "type": "tuple[]"
        }
      ],
      "stateMutability": "view",
      "type": "function"
    },
    {
      "inputs": [],
      "name": "fetchMarketItem",
      "outputs": [
        {
          "components": [
            {
              "internalType": "uint256",
              "name": "tokenId",
              "type": "uint256"
            },
            {
              "internalType": "address payable",
              "name": "seller",
              "type": "address"
            },
            {
              "internalType": "address payable",
              "name": "owner",
              "type": "address"
            },
            {
              "internalType": "uint256",
              "name": "price",
              "type": "uint256"
            },
            {
              "internalType": "bool",
              "name": "sold",
              "type": "bool"
            }
          ],
          "internalType": "struct ecoBlock.MarketItem[]",
          "name": "",
          "type": "tuple[]"
        }
      ],
      "stateMutability": "view",
      "type": "function"
    },
    {
      "inputs": [],
      "name": "fetchMyNFT",
      "outputs": [
        {
          "components": [
            {
              "internalType": "uint256",
              "name": "tokenId",
              "type": "uint256"
            },
            {
              "internalType": "address payable",
              "name": "seller",
              "type": "address"
            },
            {
              "internalType": "address payable",
              "name": "owner",
              "type": "address"
            },
            {
              "internalType": "uint256",
              "name": "price",
              "type": "uint256"
            },
            {
              "internalType": "bool",
              "name": "sold",
              "type": "bool"
            }
          ],
          "internalType": "struct ecoBlock.MarketItem[]",
          "name": "",
          "type": "tuple[]"
        }
      ],
      "stateMutability": "view",
      "type": "function"
    },
    {
      "inputs": [
        {
          "internalType": "uint256",
          "name": "tokenId",
          "type": "uint256"
        }
      ],
      "name": "getApproved",
      "outputs": [
        {
          "internalType": "address",
          "name": "",
          "type": "address"
        }
      ],
      "stateMutability": "view",
      "type": "function"
    },
    {
      "inputs": [],
      "name": "getListingPrice",
      "outputs": [
        {
          "internalType": "uint256",
          "name": "",
          "type": "uint256"
        }
      ],
      "stateMutability": "view",
      "type": "function"
    },
    {
      "inputs": [
        {
          "internalType": "address",
          "name": "owner",
          "type": "address"
        },
        {
          "internalType": "address",
          "name": "operator",
          "type": "address"
        }
      ],
      "name": "isApprovedForAll",
      "outputs": [
        {
          "internalType": "bool",
          "name": "",
          "type": "bool"
        }
      ],
      "stateMutability": "view",
      "type": "function"
    },
    {
      "inputs": [],
      "name": "name",
      "outputs": [
        {
          "internalType": "string",
          "name": "",
          "type": "string"
        }
      ],
      "stateMutability": "view",
      "type": "function"
    },
    {
      "inputs": [
        {
          "internalType": "uint256",
          "name": "tokenId",
          "type": "uint256"
        }
      ],
      "name": "ownerOf",
      "outputs": [
        {
          "internalType": "address",
          "name": "",
          "type": "address"
        }
      ],
      "stateMutability": "view",
      "type": "function"
    },
    {
      "inputs": [
        {
          "internalType": "uint256",
          "name": "tokenId",
          "type": "uint256"
        },
        {
          "internalType": "uint256",
          "name": "price",
          "type": "uint256"
        }
      ],
      "name": "reSellToken",
      "outputs": [],
      "stateMutability": "payable",
      "type": "function"
    },
    {
      "inputs": [
        {
          "internalType": "address",
          "name": "from",
          "type": "address"
        },
        {
          "internalType": "address",
          "name": "to",
          "type": "address"
        },
        {
          "internalType": "uint256",
          "name": "tokenId",
          "type": "uint256"
        }
      ],
      "name": "safeTransferFrom",
      "outputs": [],
      "stateMutability": "nonpayable",
      "type": "function"
    },
    {
      "inputs": [
        {
          "internalType": "address",
          "name": "from",
          "type": "address"
        },
        {
          "internalType": "address",
          "name": "to",
          "type": "address"
        },
        {
          "internalType": "uint256",
          "name": "tokenId",
          "type": "uint256"
        },
        {
          "internalType": "bytes",
          "name": "data",
          "type": "bytes"
        }
      ],
      "name": "safeTransferFrom",
      "outputs": [],
      "stateMutability": "nonpayable",
      "type": "function"
    },
    {
      "inputs": [
        {
          "internalType": "address",
          "name": "operator",
          "type": "address"
        },
        {
          "internalType": "bool",
          "name": "approved",
          "type": "bool"
        }
      ],
      "name": "setApprovalForAll",
      "outputs": [],
      "stateMutability": "nonpayable",
      "type": "function"
    },
    {
      "inputs": [
        {
          "internalType": "bytes4",
          "name": "interfaceId",
          "type": "bytes4"
        }
      ],
      "name": "supportsInterface",
      "outputs": [
        {
          "internalType": "bool",
          "name": "",
          "type": "bool"
        }
      ],
      "stateMutability": "view",
      "type": "function"
    },
    {
      "inputs": [],
      "name": "symbol",
      "outputs": [
        {
          "internalType": "string",
          "name": "",
          "type": "string"
        }
      ],
      "stateMutability": "view",
      "type": "function"
    },
    {
      "inputs": [
        {
          "internalType": "uint256",
          "name": "tokenId",
          "type": "uint256"
        }
      ],
      "name": "tokenURI",
      "outputs": [
        {
          "internalType": "string",
          "name": "",
          "type": "string"
        }
      ],
      "stateMutability": "view",
      "type": "function"
    },
    {
      "inputs": [
        {
          "internalType": "address",
          "name": "from",
          "type": "address"
        },
        {
          "internalType": "address",
          "name": "to",
          "type": "address"
        },
        {
          "internalType": "uint256",
          "name": "tokenId",
          "type": "uint256"
        }
      ],
      "name": "transferFrom",
      "outputs": [],
      "stateMutability": "nonpayable",
      "type": "function"
    },
    {
      "inputs": [
        {
          "internalType": "uint256",
          "name": "_ListPrice",
          "type": "uint256"
        }
      ],
      "name": "updateListingPrice",
      "outputs": [],
      "stateMutability": "payable",
      "type": "function"
    }
  ],
  "bytecode": "0x608060405266038d7ea4c680006009553480156200001c57600080fd5b506040518060400160405280601981526020017f5375737461696e61626c652045636f6c6f677920546f6b656e000000000000008152506040518060400160405280600681526020017f53555345434f000000000000000000000000000000000000000000000000000081525081600090816200009a919062000355565b508060019081620000ac919062000355565b5050503373ffffffffffffffffffffffffffffffffffffffff16600a60009054906101000a905050506200043c565b600081519050919050565b7f4e487b7100000000000000000000000000000000000000000000000000000000600052604160045260246000fd5b7f4e487b7100000000000000000000000000000000000000000000000000000000600052602260045260246000fd5b600060028204905060018216806200015d57607f821691505b60208210810362000173576200017262000115565b5b50919050565b60008190508160005260206000209050919050565b60006020601f8301049050919050565b600082821b905092915050565b600060088302620001dd7fffffffffffffffffffffffffffffffffffffffffffffffffffffffffffffffff826200019e565b620001e986836200019e565b95508019841693508086168417925050509392505050565b6000819050919050565b6000819050919050565b600062000236620002306200022a8462000201565b6200020b565b62000201565b9050919050565b6000819050919050565b620002528362000215565b6200026a62000261826200023d565b848454620001ab565b825550505050565b600090565b6200028162000272565b6200028e81848462000247565b505050565b5b81811015620002b657620002aa60008262000277565b60018101905062000294565b5050565b601f8211156200030557620002cf8162000179565b620002da846200018e565b81016020851015620002ea578190505b62000302620002f9856200018e565b83018262000293565b50505b505050565b600082821c905092915050565b60006200032a600019846008026200030a565b1980831691505092915050565b600062000345838362000317565b9150826002028217905092915050565b6200036082620000db565b67ffffffffffffffff8111156200037c576200037b620000e6565b5b62000388825462000144565b62000395828285620002ba565b600060209050601f831160018114620003cd5760008415620003b8578287015190505b620003c4858262000337565b86555062000434565b601f198416620003dd8662000179565b60005b828110156200040757848901518255600182019150602085019450602081019050620003e0565b8683101562000427578489015162000423601f89168262000317565b8355505b6001600288020188555050505b505050505050565b613b6a806200044c6000396000f3fe60806040526004361061012a5760003560e01c806372b3b620116100ab578063ae677aa31161006f578063ae677aa3146103ea578063b88d4fde14610406578063be9af5361461042f578063c18763f71461044b578063c87b56dd14610476578063e985e9c5146104b35761012a565b806372b3b6201461031f57806385535b251461034f5780638fafd0211461036b57806395d89b4114610396578063a22cb465146103c15761012a565b806323b872dd116100f257806323b872dd1461022857806342842e0e1461025157806345f8fa801461027a5780636352211e146102a557806370a08231146102e25761012a565b806301ffc9a71461012f57806306fdde031461016c578063081812fc14610197578063095ea7b3146101d457806312e85585146101fd575b600080fd5b34801561013b57600080fd5b5061015660048036038101906101519190612aec565b6104f0565b6040516101639190612b34565b60405180910390f35b34801561017857600080fd5b50610181610551565b60405161018e9190612bdf565b60405180910390f35b3480156101a357600080fd5b506101be60048036038101906101b99190612c37565b6105e3565b6040516101cb9190612ca5565b60405180910390f35b3480156101e057600080fd5b506101fb60048036038101906101f69190612cec565b6105ff565b005b34801561020957600080fd5b50610212610615565b60405161021f9190612d3b565b60405180910390f35b34801561023457600080fd5b5061024f600480360381019061024a9190612d56565b61061f565b005b34801561025d57600080fd5b5061027860048036038101906102739190612d56565b610721565b005b34801561028657600080fd5b5061028f610741565b60405161029c9190612eff565b60405180910390f35b3480156102b157600080fd5b506102cc60048036038101906102c79190612c37565b610a26565b6040516102d99190612ca5565b60405180910390f35b3480156102ee57600080fd5b5061030960048036038101906103049190612f21565b610a38565b6040516103169190612d3b565b60405180910390f35b61033960048036038101906103349190613083565b610af2565b6040516103469190612d3b565b60405180910390f35b610369600480360381019061036491906130df565b610b3d565b005b34801561037757600080fd5b50610380610d43565b60405161038d9190612eff565b60405180910390f35b3480156103a257600080fd5b506103ab610f96565b6040516103b89190612bdf565b60405180910390f35b3480156103cd57600080fd5b506103e860048036038101906103e3919061314b565b611028565b005b61040460048036038101906103ff9190612c37565b61103e565b005b34801561041257600080fd5b5061042d6004803603810190610428919061322c565b6110d8565b005b61044960048036038101906104449190612c37565b6110f5565b005b34801561045757600080fd5b5061046061133d565b60405161046d9190612eff565b60405180910390f35b34801561048257600080fd5b5061049d60048036038101906104989190612c37565b611622565b6040516104aa9190612bdf565b60405180910390f35b3480156104bf57600080fd5b506104da60048036038101906104d591906132af565b611735565b6040516104e79190612b34565b60405180910390f35b6000634906490660e01b7bffffffffffffffffffffffffffffffffffffffffffffffffffffffff1916827bffffffffffffffffffffffffffffffffffffffffffffffffffffffff1916148061054a5750610549826117c9565b5b9050919050565b6060600080546105609061331e565b80601f016020809104026020016040519081016040528092919081815260200182805461058c9061331e565b80156105d95780601f106105ae576101008083540402835291602001916105d9565b820191906000526020600020905b8154815290600101906020018083116105bc57829003601f168201915b5050505050905090565b60006105ee826118ab565b506105f882611933565b9050919050565b610611828261060c611970565b611978565b5050565b6000600954905090565b600073ffffffffffffffffffffffffffffffffffffffff168273ffffffffffffffffffffffffffffffffffffffff16036106915760006040517f64a0ae920000000000000000000000000000000000000000000000000000000081526004016106889190612ca5565b60405180910390fd5b60006106a583836106a0611970565b61198a565b90508373ffffffffffffffffffffffffffffffffffffffff168173ffffffffffffffffffffffffffffffffffffffff161461071b578382826040517f64283d7b0000000000000000000000000000000000000000000000000000000081526004016107129392919061334f565b60405180910390fd5b50505050565b61073c838383604051806020016040528060008152506110d8565b505050565b60606000600754905060008060005b838110156107f0573373ffffffffffffffffffffffffffffffffffffffff16600b600060018461078091906133b5565b815260200190815260200160002060010160009054906101000a900473ffffffffffffffffffffffffffffffffffffffff1673ffffffffffffffffffffffffffffffffffffffff16036107dd576001836107da91906133b5565b92505b80806107e8906133e9565b915050610750565b5060008267ffffffffffffffff81111561080d5761080c612f58565b5b60405190808252806020026020018201604052801561084657816020015b610833612a23565b81526020019060019003908161082b5790505b50905060005b84811015610a1b573373ffffffffffffffffffffffffffffffffffffffff16600b600060018461087c91906133b5565b815260200190815260200160002060010160009054906101000a900473ffffffffffffffffffffffffffffffffffffffff1673ffffffffffffffffffffffffffffffffffffffff1603610a085760006001826108d891906133b5565b90506000600b60008381526020019081526020016000209050806040518060a0016040529081600082015481526020016001820160009054906101000a900473ffffffffffffffffffffffffffffffffffffffff1673ffffffffffffffffffffffffffffffffffffffff1673ffffffffffffffffffffffffffffffffffffffff1681526020016002820160009054906101000a900473ffffffffffffffffffffffffffffffffffffffff1673ffffffffffffffffffffffffffffffffffffffff1673ffffffffffffffffffffffffffffffffffffffff168152602001600382015481526020016004820160009054906101000a900460ff1615151515815250508486815181106109eb576109ea613431565b5b6020026020010181905250600185610a0391906133b5565b945050505b8080610a13906133e9565b91505061084c565b508094505050505090565b6000610a31826118ab565b9050919050565b60008073ffffffffffffffffffffffffffffffffffffffff168273ffffffffffffffffffffffffffffffffffffffff1603610aab5760006040517f89c62b64000000000000000000000000000000000000000000000000000000008152600401610aa29190612ca5565b60405180910390fd5b600360008373ffffffffffffffffffffffffffffffffffffffff1673ffffffffffffffffffffffffffffffffffffffff168152602001908152602001600020549050919050565b6000600160076000828254610b0791906133b5565b9250508190555060006007549050610b1f3382611ba4565b610b298185611c9d565b610b338184611cf9565b8091505092915050565b3373ffffffffffffffffffffffffffffffffffffffff16600b600084815260200190815260200160002060020160009054906101000a900473ffffffffffffffffffffffffffffffffffffffff1673ffffffffffffffffffffffffffffffffffffffff1614610be1576040517f08c379a0000000000000000000000000000000000000000000000000000000008152600401610bd8906134ac565b60405180910390fd5b600954341015610c26576040517f08c379a0000000000000000000000000000000000000000000000000000000008152600401610c1d9061353e565b60405180910390fd5b6000600b600084815260200190815260200160002060040160006101000a81548160ff02191690831515021790555080600b60008481526020019081526020016000206003018190555033600b600084815260200190815260200160002060010160006101000a81548173ffffffffffffffffffffffffffffffffffffffff021916908373ffffffffffffffffffffffffffffffffffffffff16021790555030600b600084815260200190815260200160002060020160006101000a81548173ffffffffffffffffffffffffffffffffffffffff021916908373ffffffffffffffffffffffffffffffffffffffff160217905550600160086000828254610d2d919061355e565b92505081905550610d3f333084611efe565b5050565b6060600060075490506000600854600754610d5e919061355e565b90506000808267ffffffffffffffff811115610d7d57610d7c612f58565b5b604051908082528060200260200182016040528015610db657816020015b610da3612a23565b815260200190600190039081610d9b5790505b50905060005b84811015610f8b573073ffffffffffffffffffffffffffffffffffffffff16600b6000600184610dec91906133b5565b815260200190815260200160002060020160009054906101000a900473ffffffffffffffffffffffffffffffffffffffff1673ffffffffffffffffffffffffffffffffffffffff1603610f78576000600182610e4891906133b5565b90506000600b60008381526020019081526020016000209050806040518060a0016040529081600082015481526020016001820160009054906101000a900473ffffffffffffffffffffffffffffffffffffffff1673ffffffffffffffffffffffffffffffffffffffff1673ffffffffffffffffffffffffffffffffffffffff1681526020016002820160009054906101000a900473ffffffffffffffffffffffffffffffffffffffff1673ffffffffffffffffffffffffffffffffffffffff1673ffffffffffffffffffffffffffffffffffffffff168152602001600382015481526020016004820160009054906101000a900460ff161515151581525050848681518110610f5b57610f5a613431565b5b6020026020010181905250600185610f7391906133b5565b945050505b8080610f83906133e9565b915050610dbc565b508094505050505090565b606060018054610fa59061331e565b80601f0160208091040260200160405190810160405280929190818152602001828054610fd19061331e565b801561101e5780601f10610ff35761010080835404028352916020019161101e565b820191906000526020600020905b81548152906001019060200180831161100157829003601f168201915b5050505050905090565b61103a611033611970565b838361206b565b5050565b600a60009054906101000a900473ffffffffffffffffffffffffffffffffffffffff1673ffffffffffffffffffffffffffffffffffffffff163373ffffffffffffffffffffffffffffffffffffffff16146110ce576040517f08c379a00000000000000000000000000000000000000000000000000000000081526004016110c5906135de565b60405180910390fd5b8060098190555050565b6110e384848461061f565b6110ef848484846121da565b50505050565b6000600b6000838152602001908152602001600020600301549050803414611152576040517f08c379a00000000000000000000000000000000000000000000000000000000081526004016111499061364a565b60405180910390fd5b33600b600084815260200190815260200160002060020160006101000a81548173ffffffffffffffffffffffffffffffffffffffff021916908373ffffffffffffffffffffffffffffffffffffffff1602179055506001600b600084815260200190815260200160002060040160006101000a81548160ff0219169083151502179055506000600b600084815260200190815260200160002060020160006101000a81548173ffffffffffffffffffffffffffffffffffffffff021916908373ffffffffffffffffffffffffffffffffffffffff16021790555060016008600082825461123f91906133b5565b92505081905550611251303384611efe565b600a60009054906101000a900473ffffffffffffffffffffffffffffffffffffffff1673ffffffffffffffffffffffffffffffffffffffff166108fc6009549081150290604051600060405180830381858888f193505050501580156112bb573d6000803e3d6000fd5b50600b600083815260200190815260200160002060010160009054906101000a900473ffffffffffffffffffffffffffffffffffffffff1673ffffffffffffffffffffffffffffffffffffffff166108fc349081150290604051600060405180830381858888f19350505050158015611338573d6000803e3d6000fd5b505050565b60606000600754905060008060005b838110156113ec573373ffffffffffffffffffffffffffffffffffffffff16600b600060018461137c91906133b5565b815260200190815260200160002060020160009054906101000a900473ffffffffffffffffffffffffffffffffffffffff1673ffffffffffffffffffffffffffffffffffffffff16036113d9576001836113d691906133b5565b92505b80806113e4906133e9565b91505061134c565b5060008267ffffffffffffffff81111561140957611408612f58565b5b60405190808252806020026020018201604052801561144257816020015b61142f612a23565b8152602001906001900390816114275790505b50905060005b84811015611617573373ffffffffffffffffffffffffffffffffffffffff16600b600060018461147891906133b5565b815260200190815260200160002060020160009054906101000a900473ffffffffffffffffffffffffffffffffffffffff1673ffffffffffffffffffffffffffffffffffffffff16036116045760006001826114d491906133b5565b90506000600b60008381526020019081526020016000209050806040518060a0016040529081600082015481526020016001820160009054906101000a900473ffffffffffffffffffffffffffffffffffffffff1673ffffffffffffffffffffffffffffffffffffffff1673ffffffffffffffffffffffffffffffffffffffff1681526020016002820160009054906101000a900473ffffffffffffffffffffffffffffffffffffffff1673ffffffffffffffffffffffffffffffffffffffff1673ffffffffffffffffffffffffffffffffffffffff168152602001600382015481526020016004820160009054906101000a900460ff1615151515815250508486815181106115e7576115e6613431565b5b60200260200101819052506001856115ff91906133b5565b945050505b808061160f906133e9565b915050611448565b508094505050505090565b606061162d826118ab565b50600060066000848152602001908152602001600020805461164e9061331e565b80601f016020809104026020016040519081016040528092919081815260200182805461167a9061331e565b80156116c75780601f1061169c576101008083540402835291602001916116c7565b820191906000526020600020905b8154815290600101906020018083116116aa57829003601f168201915b5050505050905060006116d8612391565b905060008151036116ed578192505050611730565b60008251111561172257808260405160200161170a9291906136a6565b60405160208183030381529060405292505050611730565b61172b846123a8565b925050505b919050565b6000600560008473ffffffffffffffffffffffffffffffffffffffff1673ffffffffffffffffffffffffffffffffffffffff16815260200190815260200160002060008373ffffffffffffffffffffffffffffffffffffffff1673ffffffffffffffffffffffffffffffffffffffff16815260200190815260200160002060009054906101000a900460ff16905092915050565b60007f80ac58cd000000000000000000000000000000000000000000000000000000007bffffffffffffffffffffffffffffffffffffffffffffffffffffffff1916827bffffffffffffffffffffffffffffffffffffffffffffffffffffffff1916148061189457507f5b5e139f000000000000000000000000000000000000000000000000000000007bffffffffffffffffffffffffffffffffffffffffffffffffffffffff1916827bffffffffffffffffffffffffffffffffffffffffffffffffffffffff1916145b806118a457506118a382612411565b5b9050919050565b6000806118b78361247b565b9050600073ffffffffffffffffffffffffffffffffffffffff168173ffffffffffffffffffffffffffffffffffffffff160361192a57826040517f7e2732890000000000000000000000000000000000000000000000000000000081526004016119219190612d3b565b60405180910390fd5b80915050919050565b60006004600083815260200190815260200160002060009054906101000a900473ffffffffffffffffffffffffffffffffffffffff169050919050565b600033905090565b61198583838360016124b8565b505050565b6000806119968461247b565b9050600073ffffffffffffffffffffffffffffffffffffffff168373ffffffffffffffffffffffffffffffffffffffff16146119d8576119d781848661267d565b5b600073ffffffffffffffffffffffffffffffffffffffff168173ffffffffffffffffffffffffffffffffffffffff1614611a6957611a1a6000856000806124b8565b6001600360008373ffffffffffffffffffffffffffffffffffffffff1673ffffffffffffffffffffffffffffffffffffffff168152602001908152602001600020600082825403925050819055505b600073ffffffffffffffffffffffffffffffffffffffff168573ffffffffffffffffffffffffffffffffffffffff1614611aec576001600360008773ffffffffffffffffffffffffffffffffffffffff1673ffffffffffffffffffffffffffffffffffffffff168152602001908152602001600020600082825401925050819055505b846002600086815260200190815260200160002060006101000a81548173ffffffffffffffffffffffffffffffffffffffff021916908373ffffffffffffffffffffffffffffffffffffffff160217905550838573ffffffffffffffffffffffffffffffffffffffff168273ffffffffffffffffffffffffffffffffffffffff167fddf252ad1be2c89b69c2b068fc378daa952ba7f163c4a11628f55a4df523b3ef60405160405180910390a4809150509392505050565b600073ffffffffffffffffffffffffffffffffffffffff168273ffffffffffffffffffffffffffffffffffffffff1603611c165760006040517f64a0ae92000000000000000000000000000000000000000000000000000000008152600401611c0d9190612ca5565b60405180910390fd5b6000611c248383600061198a565b9050600073ffffffffffffffffffffffffffffffffffffffff168173ffffffffffffffffffffffffffffffffffffffff1614611c985760006040517f73c6ac6e000000000000000000000000000000000000000000000000000000008152600401611c8f9190612ca5565b60405180910390fd5b505050565b80600660008481526020019081526020016000209081611cbd9190613876565b507ff8e1a15aba9398e019f0b49df1a4fde98ee17ae345cb5f6b5e2c27f5033e8ce782604051611ced9190612d3b565b60405180910390a15050565b6000811015611d3d576040517f08c379a0000000000000000000000000000000000000000000000000000000008152600401611d3490613994565b60405180910390fd5b600954341015611d82576040517f08c379a0000000000000000000000000000000000000000000000000000000008152600401611d799061353e565b60405180910390fd5b6040518060a001604052808381526020013373ffffffffffffffffffffffffffffffffffffffff1681526020013073ffffffffffffffffffffffffffffffffffffffff16815260200182815260200160001515815250600b60008481526020019081526020016000206000820151816000015560208201518160010160006101000a81548173ffffffffffffffffffffffffffffffffffffffff021916908373ffffffffffffffffffffffffffffffffffffffff16021790555060408201518160020160006101000a81548173ffffffffffffffffffffffffffffffffffffffff021916908373ffffffffffffffffffffffffffffffffffffffff1602179055506060820151816003015560808201518160040160006101000a81548160ff021916908315150217905550905050611ebb333084611efe565b817fdebdb32cb5230ab727c9c361b16fdb2015df225c10e6a3e7f60ecd5dc5be45163330846000604051611ef294939291906139b4565b60405180910390a25050565b600073ffffffffffffffffffffffffffffffffffffffff168273ffffffffffffffffffffffffffffffffffffffff1603611f705760006040517f64a0ae92000000000000000000000000000000000000000000000000000000008152600401611f679190612ca5565b60405180910390fd5b6000611f7e8383600061198a565b9050600073ffffffffffffffffffffffffffffffffffffffff168173ffffffffffffffffffffffffffffffffffffffff1603611ff157816040517f7e273289000000000000000000000000000000000000000000000000000000008152600401611fe89190612d3b565b60405180910390fd5b8373ffffffffffffffffffffffffffffffffffffffff168173ffffffffffffffffffffffffffffffffffffffff1614612065578382826040517f64283d7b00000000000000000000000000000000000000000000000000000000815260040161205c9392919061334f565b60405180910390fd5b50505050565b600073ffffffffffffffffffffffffffffffffffffffff168273ffffffffffffffffffffffffffffffffffffffff16036120dc57816040517f5b08ba180000000000000000000000000000000000000000000000000000000081526004016120d39190612ca5565b60405180910390fd5b80600560008573ffffffffffffffffffffffffffffffffffffffff1673ffffffffffffffffffffffffffffffffffffffff16815260200190815260200160002060008473ffffffffffffffffffffffffffffffffffffffff1673ffffffffffffffffffffffffffffffffffffffff16815260200190815260200160002060006101000a81548160ff0219169083151502179055508173ffffffffffffffffffffffffffffffffffffffff168373ffffffffffffffffffffffffffffffffffffffff167f17307eab39ab6107e8899845ad3d59bd9653f200f220920489ca2b5937696c31836040516121cd9190612b34565b60405180910390a3505050565b60008373ffffffffffffffffffffffffffffffffffffffff163b111561238b578273ffffffffffffffffffffffffffffffffffffffff1663150b7a0261221e611970565b8685856040518563ffffffff1660e01b81526004016122409493929190613a4e565b6020604051808303816000875af192505050801561227c57506040513d601f19601f820116820180604052508101906122799190613aaf565b60015b612300573d80600081146122ac576040519150601f19603f3d011682016040523d82523d6000602084013e6122b1565b606091505b5060008151036122f857836040517f64a0ae920000000000000000000000000000000000000000000000000000000081526004016122ef9190612ca5565b60405180910390fd5b805181602001fd5b63150b7a0260e01b7bffffffffffffffffffffffffffffffffffffffffffffffffffffffff1916817bffffffffffffffffffffffffffffffffffffffffffffffffffffffff19161461238957836040517f64a0ae920000000000000000000000000000000000000000000000000000000081526004016123809190612ca5565b60405180910390fd5b505b50505050565b606060405180602001604052806000815250905090565b60606123b3826118ab565b5060006123be612391565b905060008151116123de5760405180602001604052806000815250612409565b806123e884612741565b6040516020016123f99291906136a6565b6040516020818303038152906040525b915050919050565b60007f01ffc9a7000000000000000000000000000000000000000000000000000000007bffffffffffffffffffffffffffffffffffffffffffffffffffffffff1916827bffffffffffffffffffffffffffffffffffffffffffffffffffffffff1916149050919050565b60006002600083815260200190815260200160002060009054906101000a900473ffffffffffffffffffffffffffffffffffffffff169050919050565b80806124f15750600073ffffffffffffffffffffffffffffffffffffffff168273ffffffffffffffffffffffffffffffffffffffff1614155b15612625576000612501846118ab565b9050600073ffffffffffffffffffffffffffffffffffffffff168373ffffffffffffffffffffffffffffffffffffffff161415801561256c57508273ffffffffffffffffffffffffffffffffffffffff168173ffffffffffffffffffffffffffffffffffffffff1614155b801561257f575061257d8184611735565b155b156125c157826040517fa9fbf51f0000000000000000000000000000000000000000000000000000000081526004016125b89190612ca5565b60405180910390fd5b811561262357838573ffffffffffffffffffffffffffffffffffffffff168273ffffffffffffffffffffffffffffffffffffffff167f8c5be1e5ebec7d5bd14f71427d1e84f3dd0314c0f7b2291e5b200ac8c7c3b92560405160405180910390a45b505b836004600085815260200190815260200160002060006101000a81548173ffffffffffffffffffffffffffffffffffffffff021916908373ffffffffffffffffffffffffffffffffffffffff16021790555050505050565b61268883838361280f565b61273c57600073ffffffffffffffffffffffffffffffffffffffff168373ffffffffffffffffffffffffffffffffffffffff16036126fd57806040517f7e2732890000000000000000000000000000000000000000000000000000000081526004016126f49190612d3b565b60405180910390fd5b81816040517f177e802f000000000000000000000000000000000000000000000000000000008152600401612733929190613adc565b60405180910390fd5b505050565b606060006001612750846128d0565b01905060008167ffffffffffffffff81111561276f5761276e612f58565b5b6040519080825280601f01601f1916602001820160405280156127a15781602001600182028036833780820191505090505b509050600082602001820190505b600115612804578080600190039150507f3031323334353637383961626364656600000000000000000000000000000000600a86061a8153600a85816127f8576127f7613b05565b5b049450600085036127af575b819350505050919050565b60008073ffffffffffffffffffffffffffffffffffffffff168373ffffffffffffffffffffffffffffffffffffffff16141580156128c757508273ffffffffffffffffffffffffffffffffffffffff168473ffffffffffffffffffffffffffffffffffffffff16148061288857506128878484611735565b5b806128c657508273ffffffffffffffffffffffffffffffffffffffff166128ae83611933565b73ffffffffffffffffffffffffffffffffffffffff16145b5b90509392505050565b600080600090507a184f03e93ff9f4daa797ed6e38ed64bf6a1f010000000000000000831061292e577a184f03e93ff9f4daa797ed6e38ed64bf6a1f010000000000000000838161292457612923613b05565b5b0492506040810190505b6d04ee2d6d415b85acef8100000000831061296b576d04ee2d6d415b85acef8100000000838161296157612960613b05565b5b0492506020810190505b662386f26fc10000831061299a57662386f26fc1000083816129905761298f613b05565b5b0492506010810190505b6305f5e10083106129c3576305f5e10083816129b9576129b8613b05565b5b0492506008810190505b61271083106129e85761271083816129de576129dd613b05565b5b0492506004810190505b60648310612a0b5760648381612a0157612a00613b05565b5b0492506002810190505b600a8310612a1a576001810190505b80915050919050565b6040518060a0016040528060008152602001600073ffffffffffffffffffffffffffffffffffffffff168152602001600073ffffffffffffffffffffffffffffffffffffffff168152602001600081526020016000151581525090565b6000604051905090565b600080fd5b600080fd5b60007fffffffff0000000000000000000000000000000000000000000000000000000082169050919050565b612ac981612a94565b8114612ad457600080fd5b50565b600081359050612ae681612ac0565b92915050565b600060208284031215612b0257612b01612a8a565b5b6000612b1084828501612ad7565b91505092915050565b60008115159050919050565b612b2e81612b19565b82525050565b6000602082019050612b496000830184612b25565b92915050565b600081519050919050565b600082825260208201905092915050565b60005b83811015612b89578082015181840152602081019050612b6e565b60008484015250505050565b6000601f19601f8301169050919050565b6000612bb182612b4f565b612bbb8185612b5a565b9350612bcb818560208601612b6b565b612bd481612b95565b840191505092915050565b60006020820190508181036000830152612bf98184612ba6565b905092915050565b6000819050919050565b612c1481612c01565b8114612c1f57600080fd5b50565b600081359050612c3181612c0b565b92915050565b600060208284031215612c4d57612c4c612a8a565b5b6000612c5b84828501612c22565b91505092915050565b600073ffffffffffffffffffffffffffffffffffffffff82169050919050565b6000612c8f82612c64565b9050919050565b612c9f81612c84565b82525050565b6000602082019050612cba6000830184612c96565b92915050565b612cc981612c84565b8114612cd457600080fd5b50565b600081359050612ce681612cc0565b92915050565b60008060408385031215612d0357612d02612a8a565b5b6000612d1185828601612cd7565b9250506020612d2285828601612c22565b9150509250929050565b612d3581612c01565b82525050565b6000602082019050612d506000830184612d2c565b92915050565b600080600060608486031215612d6f57612d6e612a8a565b5b6000612d7d86828701612cd7565b9350506020612d8e86828701612cd7565b9250506040612d9f86828701612c22565b9150509250925092565b600081519050919050565b600082825260208201905092915050565b6000819050602082019050919050565b612dde81612c01565b82525050565b6000612def82612c64565b9050919050565b612dff81612de4565b82525050565b612e0e81612b19565b82525050565b60a082016000820151612e2a6000850182612dd5565b506020820151612e3d6020850182612df6565b506040820151612e506040850182612df6565b506060820151612e636060850182612dd5565b506080820151612e766080850182612e05565b50505050565b6000612e888383612e14565b60a08301905092915050565b6000602082019050919050565b6000612eac82612da9565b612eb68185612db4565b9350612ec183612dc5565b8060005b83811015612ef2578151612ed98882612e7c565b9750612ee483612e94565b925050600181019050612ec5565b5085935050505092915050565b60006020820190508181036000830152612f198184612ea1565b905092915050565b600060208284031215612f3757612f36612a8a565b5b6000612f4584828501612cd7565b91505092915050565b600080fd5b600080fd5b7f4e487b7100000000000000000000000000000000000000000000000000000000600052604160045260246000fd5b612f9082612b95565b810181811067ffffffffffffffff82111715612faf57612fae612f58565b5b80604052505050565b6000612fc2612a80565b9050612fce8282612f87565b919050565b600067ffffffffffffffff821115612fee57612fed612f58565b5b612ff782612b95565b9050602081019050919050565b82818337600083830152505050565b600061302661302184612fd3565b612fb8565b90508281526020810184848401111561304257613041612f53565b5b61304d848285613004565b509392505050565b600082601f83011261306a57613069612f4e565b5b813561307a848260208601613013565b91505092915050565b6000806040838503121561309a57613099612a8a565b5b600083013567ffffffffffffffff8111156130b8576130b7612a8f565b5b6130c485828601613055565b92505060206130d585828601612c22565b9150509250929050565b600080604083850312156130f6576130f5612a8a565b5b600061310485828601612c22565b925050602061311585828601612c22565b9150509250929050565b61312881612b19565b811461313357600080fd5b50565b6000813590506131458161311f565b92915050565b6000806040838503121561316257613161612a8a565b5b600061317085828601612cd7565b925050602061318185828601613136565b9150509250929050565b600067ffffffffffffffff8211156131a6576131a5612f58565b5b6131af82612b95565b9050602081019050919050565b60006131cf6131ca8461318b565b612fb8565b9050828152602081018484840111156131eb576131ea612f53565b5b6131f6848285613004565b509392505050565b600082601f83011261321357613212612f4e565b5b81356132238482602086016131bc565b91505092915050565b6000806000806080858703121561324657613245612a8a565b5b600061325487828801612cd7565b945050602061326587828801612cd7565b935050604061327687828801612c22565b925050606085013567ffffffffffffffff81111561329757613296612a8f565b5b6132a3878288016131fe565b91505092959194509250565b600080604083850312156132c6576132c5612a8a565b5b60006132d485828601612cd7565b92505060206132e585828601612cd7565b9150509250929050565b7f4e487b7100000000000000000000000000000000000000000000000000000000600052602260045260246000fd5b6000600282049050600182168061333657607f821691505b602082108103613349576133486132ef565b5b50919050565b60006060820190506133646000830186612c96565b6133716020830185612d2c565b61337e6040830184612c96565b949350505050565b7f4e487b7100000000000000000000000000000000000000000000000000000000600052601160045260246000fd5b60006133c082612c01565b91506133cb83612c01565b92508282019050808211156133e3576133e2613386565b5b92915050565b60006133f482612c01565b91507fffffffffffffffffffffffffffffffffffffffffffffffffffffffffffffffff820361342657613425613386565b5b600182019050919050565b7f4e487b7100000000000000000000000000000000000000000000000000000000600052603260045260246000fd5b7f4f776e65727368697020496e76616c6964000000000000000000000000000000600082015250565b6000613496601183612b5a565b91506134a182613460565b602082019050919050565b600060208201905081810360008301526134c581613489565b9050919050565b7f5072696365206d7573742062652067726561746572207468616e204c6973746960008201527f6e67205072696365000000000000000000000000000000000000000000000000602082015250565b6000613528602883612b5a565b9150613533826134cc565b604082019050919050565b600060208201905081810360008301526135578161351b565b9050919050565b600061356982612c01565b915061357483612c01565b925082820390508181111561358c5761358b613386565b5b92915050565b7f496e73756666696369656e7420417574686f7269747900000000000000000000600082015250565b60006135c8601683612b5a565b91506135d382613592565b602082019050919050565b600060208201905081810360008301526135f7816135bb565b9050919050565b7f496e73756666696369656e7420416d6f756e7400000000000000000000000000600082015250565b6000613634601383612b5a565b915061363f826135fe565b602082019050919050565b6000602082019050818103600083015261366381613627565b9050919050565b600081905092915050565b600061368082612b4f565b61368a818561366a565b935061369a818560208601612b6b565b80840191505092915050565b60006136b28285613675565b91506136be8284613675565b91508190509392505050565b60008190508160005260206000209050919050565b60006020601f8301049050919050565b600082821b905092915050565b60006008830261372c7fffffffffffffffffffffffffffffffffffffffffffffffffffffffffffffffff826136ef565b61373686836136ef565b95508019841693508086168417925050509392505050565b6000819050919050565b600061377361376e61376984612c01565b61374e565b612c01565b9050919050565b6000819050919050565b61378d83613758565b6137a16137998261377a565b8484546136fc565b825550505050565b600090565b6137b66137a9565b6137c1818484613784565b505050565b5b818110156137e5576137da6000826137ae565b6001810190506137c7565b5050565b601f82111561382a576137fb816136ca565b613804846136df565b81016020851015613813578190505b61382761381f856136df565b8301826137c6565b50505b505050565b600082821c905092915050565b600061384d6000198460080261382f565b1980831691505092915050565b6000613866838361383c565b9150826002028217905092915050565b61387f82612b4f565b67ffffffffffffffff81111561389857613897612f58565b5b6138a2825461331e565b6138ad8282856137e9565b600060209050601f8311600181146138e057600084156138ce578287015190505b6138d8858261385a565b865550613940565b601f1984166138ee866136ca565b60005b82811015613916578489015182556001820191506020850194506020810190506138f1565b86831015613933578489015161392f601f89168261383c565b8355505b6001600288020188555050505b505050505050565b7f4d696e696d756d20507269636520697320302e35000000000000000000000000600082015250565b600061397e601483612b5a565b915061398982613948565b602082019050919050565b600060208201905081810360008301526139ad81613971565b9050919050565b60006080820190506139c96000830187612c96565b6139d66020830186612c96565b6139e36040830185612d2c565b6139f06060830184612b25565b95945050505050565b600081519050919050565b600082825260208201905092915050565b6000613a20826139f9565b613a2a8185613a04565b9350613a3a818560208601612b6b565b613a4381612b95565b840191505092915050565b6000608082019050613a636000830187612c96565b613a706020830186612c96565b613a7d6040830185612d2c565b8181036060830152613a8f8184613a15565b905095945050505050565b600081519050613aa981612ac0565b92915050565b600060208284031215613ac557613ac4612a8a565b5b6000613ad384828501613a9a565b91505092915050565b6000604082019050613af16000830185612c96565b613afe6020830184612d2c565b9392505050565b7f4e487b7100000000000000000000000000000000000000000000000000000000600052601260045260246000fdfea2646970667358221220ed30c38c6961836e3796e7651634d0075c9aecb5174ced822763aa296cdd820164736f6c63430008140033",
  "linkReferences": {},
  "deployedLinkReferences": {}
}